{
  "_format": "hh-sol-artifact-1",
  "contractName": "Voting",
  "sourceName": "contracts/Voting.sol",
  "abi": [
    {
      "anonymous": false,
      "inputs": [
        {
          "indexed": false,
          "internalType": "address",
          "name": "voter",
          "type": "address"
        },
        {
          "indexed": false,
          "internalType": "bytes32",
          "name": "option",
          "type": "bytes32"
        },
        {
          "indexed": false,
          "internalType": "uint256",
          "name": "totalVotes",
          "type": "uint256"
        }
      ],
      "name": "Voted",
      "type": "event"
    },
    {
      "anonymous": false,
      "inputs": [
        {
          "indexed": false,
          "internalType": "address",
          "name": "voter",
          "type": "address"
        },
        {
          "indexed": false,
          "internalType": "uint256",
          "name": "amount",
          "type": "uint256"
        }
      ],
      "name": "Withdrawn",
      "type": "event"
    },
    {
      "inputs": [
        {
          "internalType": "address",
          "name": "",
          "type": "address"
        }
      ],
      "name": "balances",
      "outputs": [
        {
          "internalType": "uint256",
          "name": "",
          "type": "uint256"
        }
      ],
      "stateMutability": "view",
      "type": "function"
    },
    {
      "inputs": [
        {
          "internalType": "bytes32",
          "name": "option",
          "type": "bytes32"
        }
      ],
      "name": "vote",
      "outputs": [],
      "stateMutability": "payable",
      "type": "function"
    },
    {
      "inputs": [
        {
          "internalType": "address",
          "name": "",
          "type": "address"
        }
      ],
      "name": "voted",
      "outputs": [
        {
          "internalType": "bool",
          "name": "",
          "type": "bool"
        }
      ],
      "stateMutability": "view",
      "type": "function"
    },
    {
      "inputs": [
        {
          "internalType": "bytes32",
          "name": "",
          "type": "bytes32"
        }
      ],
      "name": "votes",
      "outputs": [
        {
          "internalType": "uint256",
          "name": "",
          "type": "uint256"
        }
      ],
      "stateMutability": "view",
      "type": "function"
    },
    {
      "inputs": [],
      "name": "withdraw",
      "outputs": [],
      "stateMutability": "nonpayable",
      "type": "function"
    }
  ],
  "bytecode": "0x6080604052348015600f57600080fd5b50610b148061001f6000396000f3fe60806040526004361061004a5760003560e01c806327e235e31461004f5780632b38cd961461008c5780633ccfd60b146100c9578063a69beaba146100e0578063aec2ccae146100fc575b600080fd5b34801561005b57600080fd5b5061007660048036038101906100719190610622565b610139565b6040516100839190610668565b60405180910390f35b34801561009857600080fd5b506100b360048036038101906100ae91906106b9565b610151565b6040516100c09190610668565b60405180910390f35b3480156100d557600080fd5b506100de610169565b005b6100fa60048036038101906100f591906106b9565b6103aa565b005b34801561010857600080fd5b50610123600480360381019061011e9190610622565b61059f565b6040516101309190610701565b60405180910390f35b60026020528060005260406000206000915090505481565b60006020528060005260406000206000915090505481565b600160003373ffffffffffffffffffffffffffffffffffffffff1673ffffffffffffffffffffffffffffffffffffffff16815260200190815260200160002060009054906101000a900460ff166101f5576040517f08c379a00000000000000000000000000000000000000000000000000000000081526004016101ec90610779565b60405180910390fd5b6000600260003373ffffffffffffffffffffffffffffffffffffffff1673ffffffffffffffffffffffffffffffffffffffff1681526020019081526020016000205490506000811161027c576040517f08c379a0000000000000000000000000000000000000000000000000000000008152600401610273906107e5565b60405180910390fd5b6000600260003373ffffffffffffffffffffffffffffffffffffffff1673ffffffffffffffffffffffffffffffffffffffff1681526020019081526020016000208190555060003373ffffffffffffffffffffffffffffffffffffffff16826040516102e790610836565b60006040518083038185875af1925050503d8060008114610324576040519150601f19603f3d011682016040523d82523d6000602084013e610329565b606091505b505090508061036d576040517f08c379a000000000000000000000000000000000000000000000000000000000815260040161036490610897565b60405180910390fd5b7f7084f5476618d8e60b11ef0d7d3f06914655adb8793e28ff7f018d4c76d505d5338360405161039e9291906108c6565b60405180910390a15050565b600160003373ffffffffffffffffffffffffffffffffffffffff1673ffffffffffffffffffffffffffffffffffffffff16815260200190815260200160002060009054906101000a900460ff1615610437576040517f08c379a000000000000000000000000000000000000000000000000000000000815260040161042e9061093b565b60405180910390fd5b6000341161047a576040517f08c379a0000000000000000000000000000000000000000000000000000000008152600401610471906109cd565b60405180910390fd5b600080828152602001908152602001600020600081548092919061049d90610a1c565b919050555060018060003373ffffffffffffffffffffffffffffffffffffffff1673ffffffffffffffffffffffffffffffffffffffff16815260200190815260200160002060006101000a81548160ff02191690831515021790555034600260003373ffffffffffffffffffffffffffffffffffffffff1673ffffffffffffffffffffffffffffffffffffffff16815260200190815260200160002060008282546105489190610a64565b925050819055507ff3030daa88eabb3b7f7583ba11debc017684b88752ce6f84f24120427ac5c18733826000808581526020019081526020016000205460405161059493929190610aa7565b60405180910390a150565b60016020528060005260406000206000915054906101000a900460ff1681565b600080fd5b600073ffffffffffffffffffffffffffffffffffffffff82169050919050565b60006105ef826105c4565b9050919050565b6105ff816105e4565b811461060a57600080fd5b50565b60008135905061061c816105f6565b92915050565b600060208284031215610638576106376105bf565b5b60006106468482850161060d565b91505092915050565b6000819050919050565b6106628161064f565b82525050565b600060208201905061067d6000830184610659565b92915050565b6000819050919050565b61069681610683565b81146106a157600080fd5b50565b6000813590506106b38161068d565b92915050565b6000602082840312156106cf576106ce6105bf565b5b60006106dd848285016106a4565b91505092915050565b60008115159050919050565b6106fb816106e6565b82525050565b600060208201905061071660008301846106f2565b92915050565b600082825260208201905092915050565b7f596f752068617665206e6f7420766f7465642e00000000000000000000000000600082015250565b600061076360138361071c565b915061076e8261072d565b602082019050919050565b6000602082019050818103600083015261079281610756565b9050919050565b7f4e6f2062616c616e636520746f2077697468647261772e000000000000000000600082015250565b60006107cf60178361071c565b91506107da82610799565b602082019050919050565b600060208201905081810360008301526107fe816107c2565b9050919050565b600081905092915050565b50565b6000610820600083610805565b915061082b82610810565b600082019050919050565b600061084182610813565b9150819050919050565b7f4661696c656420746f2073656e642045746865722e0000000000000000000000600082015250565b600061088160158361071c565b915061088c8261084b565b602082019050919050565b600060208201905081810360008301526108b081610874565b9050919050565b6108c0816105e4565b82525050565b60006040820190506108db60008301856108b7565b6108e86020830184610659565b9392505050565b7f596f75206861766520616c726561647920766f7465642e000000000000000000600082015250565b600061092560178361071c565b9150610930826108ef565b602082019050919050565b6000602082019050818103600083015261095481610918565b9050919050565b7f596f75206e65656420746f2073656e6420736f6d6520657468657220746f207660008201527f6f74652e00000000000000000000000000000000000000000000000000000000602082015250565b60006109b760248361071c565b91506109c28261095b565b604082019050919050565b600060208201905081810360008301526109e6816109aa565b9050919050565b7f4e487b7100000000000000000000000000000000000000000000000000000000600052601160045260246000fd5b6000610a278261064f565b91507fffffffffffffffffffffffffffffffffffffffffffffffffffffffffffffffff8203610a5957610a586109ed565b5b600182019050919050565b6000610a6f8261064f565b9150610a7a8361064f565b9250828201905080821115610a9257610a916109ed565b5b92915050565b610aa181610683565b82525050565b6000606082019050610abc60008301866108b7565b610ac96020830185610a98565b610ad66040830184610659565b94935050505056fea2646970667358221220f090ff020fb933b68ca69ab1471a2c5d3f2b1d114c45a4c68d248bf64cd2c31264736f6c634300081b0033",
  "linkReferences": {},
  "deployedLinkReferences": {}
}