{
  "_format": "hh-sol-artifact-1",
  "contractName": "VotingV2",
  "sourceName": "contracts/VotingV2.sol",
  "abi": [
    {
      "anonymous": false,
      "inputs": [
        {
          "indexed": true,
          "internalType": "bytes32",
          "name": "questionId",
          "type": "bytes32"
        },
        {
          "indexed": false,
          "internalType": "string",
          "name": "title",
          "type": "string"
        }
      ],
      "name": "QuestionCreated",
      "type": "event"
    },
    {
      "anonymous": false,
      "inputs": [
        {
          "indexed": true,
          "internalType": "address",
          "name": "voter",
          "type": "address"
        },
        {
          "indexed": true,
          "internalType": "bytes32",
          "name": "questionId",
          "type": "bytes32"
        },
        {
          "indexed": false,
          "internalType": "bytes32",
          "name": "option",
          "type": "bytes32"
        },
        {
          "indexed": false,
          "internalType": "uint256",
          "name": "totalVotes",
          "type": "uint256"
        }
      ],
      "name": "Voted",
      "type": "event"
    },
    {
      "anonymous": false,
      "inputs": [
        {
          "indexed": true,
          "internalType": "address",
          "name": "voter",
          "type": "address"
        },
        {
          "indexed": true,
          "internalType": "bytes32",
          "name": "questionId",
          "type": "bytes32"
        },
        {
          "indexed": false,
          "internalType": "uint256",
          "name": "amount",
          "type": "uint256"
        }
      ],
      "name": "Withdrawn",
      "type": "event"
    },
    {
      "inputs": [
        {
          "internalType": "address",
          "name": "",
          "type": "address"
        },
        {
          "internalType": "bytes32",
          "name": "",
          "type": "bytes32"
        }
      ],
      "name": "balances",
      "outputs": [
        {
          "internalType": "uint256",
          "name": "",
          "type": "uint256"
        }
      ],
      "stateMutability": "view",
      "type": "function"
    },
    {
      "inputs": [
        {
          "internalType": "string",
          "name": "title",
          "type": "string"
        },
        {
          "internalType": "string[]",
          "name": "optionTexts",
          "type": "string[]"
        }
      ],
      "name": "createQuestion",
      "outputs": [],
      "stateMutability": "nonpayable",
      "type": "function"
    },
    {
      "inputs": [
        {
          "internalType": "bytes32",
          "name": "questionId",
          "type": "bytes32"
        }
      ],
      "name": "getQuestion",
      "outputs": [
        {
          "internalType": "string",
          "name": "title",
          "type": "string"
        },
        {
          "internalType": "bytes32[]",
          "name": "options",
          "type": "bytes32[]"
        },
        {
          "internalType": "bool",
          "name": "isActive",
          "type": "bool"
        }
      ],
      "stateMutability": "view",
      "type": "function"
    },
    {
      "inputs": [],
      "name": "getQuestionCount",
      "outputs": [
        {
          "internalType": "uint256",
          "name": "",
          "type": "uint256"
        }
      ],
      "stateMutability": "view",
      "type": "function"
    },
    {
      "inputs": [
        {
          "internalType": "bytes32",
          "name": "questionId",
          "type": "bytes32"
        },
        {
          "internalType": "bytes32",
          "name": "option",
          "type": "bytes32"
        }
      ],
      "name": "getVoteCount",
      "outputs": [
        {
          "internalType": "uint256",
          "name": "",
          "type": "uint256"
        }
      ],
      "stateMutability": "view",
      "type": "function"
    },
    {
      "inputs": [
        {
          "internalType": "bytes32",
          "name": "questionId",
          "type": "bytes32"
        },
        {
          "internalType": "address",
          "name": "voter",
          "type": "address"
        }
      ],
      "name": "hasVoted",
      "outputs": [
        {
          "internalType": "bool",
          "name": "",
          "type": "bool"
        }
      ],
      "stateMutability": "view",
      "type": "function"
    },
    {
      "inputs": [
        {
          "internalType": "uint256",
          "name": "",
          "type": "uint256"
        }
      ],
      "name": "questionIds",
      "outputs": [
        {
          "internalType": "bytes32",
          "name": "",
          "type": "bytes32"
        }
      ],
      "stateMutability": "view",
      "type": "function"
    },
    {
      "inputs": [
        {
          "internalType": "bytes32",
          "name": "",
          "type": "bytes32"
        }
      ],
      "name": "questions",
      "outputs": [
        {
          "internalType": "bytes32",
          "name": "id",
          "type": "bytes32"
        },
        {
          "internalType": "string",
          "name": "title",
          "type": "string"
        },
        {
          "internalType": "bool",
          "name": "isActive",
          "type": "bool"
        }
      ],
      "stateMutability": "view",
      "type": "function"
    },
    {
      "inputs": [
        {
          "internalType": "bytes32",
          "name": "questionId",
          "type": "bytes32"
        },
        {
          "internalType": "bytes32",
          "name": "option",
          "type": "bytes32"
        }
      ],
      "name": "vote",
      "outputs": [],
      "stateMutability": "payable",
      "type": "function"
    },
    {
      "inputs": [
        {
          "internalType": "bytes32",
          "name": "questionId",
          "type": "bytes32"
        }
      ],
      "name": "withdraw",
      "outputs": [],
      "stateMutability": "nonpayable",
      "type": "function"
    }
  ],
  "bytecode": "0x6080604052348015600f57600080fd5b50611d988061001f6000396000f3fe6080604052600436106100915760003560e01c8063aadc3b7211610059578063aadc3b72146101b7578063d60fc2f1146101f4578063dd41cc2f1461021d578063eeaaf19d14610248578063f03477831461026457610091565b80631f14df691461009657806358c039cd146100d35780636d721171146101125780638e19899e1461014f57806395addb9014610178575b600080fd5b3480156100a257600080fd5b506100bd60048036038101906100b89190610ed9565b6102a1565b6040516100ca9190610f32565b60405180910390f35b3480156100df57600080fd5b506100fa60048036038101906100f59190610f4d565b6102c6565b604051610109939291906110e3565b60405180910390f35b34801561011e57600080fd5b5061013960048036038101906101349190611128565b61044b565b6040516101469190610f32565b60405180910390f35b34801561015b57600080fd5b5061017660048036038101906101719190610f4d565b6104e0565b005b34801561018457600080fd5b5061019f600480360381019061019a9190610f4d565b6107d1565b6040516101ae93929190611177565b60405180910390f35b3480156101c357600080fd5b506101de60048036038101906101d991906111b5565b610890565b6040516101eb91906111f5565b60405180910390f35b34801561020057600080fd5b5061021b6004803603810190610216919061142b565b61095e565b005b34801561022957600080fd5b50610232610acb565b60405161023f9190610f32565b60405180910390f35b610262600480360381019061025d9190611128565b610ad8565b005b34801561027057600080fd5b5061028b600480360381019061028691906114cf565b610e0d565b60405161029891906114fc565b60405180910390f35b6002602052816000526040600020602052806000526040600020600091509150505481565b60608060008360008082815260200190815260200160002060050160009054906101000a900460ff1661032e576040517f08c379a000000000000000000000000000000000000000000000000000000000815260040161032590611563565b60405180910390fd5b6000806000878152602001908152602001600020905080600101816002018260050160009054906101000a900460ff1682805461036a906115b2565b80601f0160208091040260200160405190810160405280929190818152602001828054610396906115b2565b80156103e35780601f106103b8576101008083540402835291602001916103e3565b820191906000526020600020905b8154815290600101906020018083116103c657829003601f168201915b505050505092508180548060200260200160405190810160405280929190818152602001828054801561043557602002820191906000526020600020905b815481526020019060010190808311610421575b5050505050915094509450945050509193909250565b60008260008082815260200190815260200160002060050160009054906101000a900460ff166104b0576040517f08c379a00000000000000000000000000000000000000000000000000000000081526004016104a790611563565b60405180910390fd5b60008085815260200190815260200160002060030160008481526020019081526020016000205491505092915050565b8060008082815260200190815260200160002060050160009054906101000a900460ff16610543576040517f08c379a000000000000000000000000000000000000000000000000000000000815260040161053a90611563565b60405180910390fd5b6000600260003373ffffffffffffffffffffffffffffffffffffffff1673ffffffffffffffffffffffffffffffffffffffff1681526020019081526020016000206000848152602001908152602001600020549050600081116105db576040517f08c379a00000000000000000000000000000000000000000000000000000000081526004016105d29061162f565b60405180910390fd5b60008084815260200190815260200160002060040160003373ffffffffffffffffffffffffffffffffffffffff1673ffffffffffffffffffffffffffffffffffffffff16815260200190815260200160002060009054906101000a900460ff1661067a576040517f08c379a0000000000000000000000000000000000000000000000000000000008152600401610671906116c1565b60405180910390fd5b6000600260003373ffffffffffffffffffffffffffffffffffffffff1673ffffffffffffffffffffffffffffffffffffffff16815260200190815260200160002060008581526020019081526020016000208190555060003373ffffffffffffffffffffffffffffffffffffffff16826040516106f690611712565b60006040518083038185875af1925050503d8060008114610733576040519150601f19603f3d011682016040523d82523d6000602084013e610738565b606091505b505090508061077c576040517f08c379a000000000000000000000000000000000000000000000000000000000815260040161077390611773565b60405180910390fd5b833373ffffffffffffffffffffffffffffffffffffffff167f1353fec506e912e37c0fbf3dddb0aa594d9b70ae58b1cc56ee735f589c351b68846040516107c39190610f32565b60405180910390a350505050565b60006020528060005260406000206000915090508060000154908060010180546107fa906115b2565b80601f0160208091040260200160405190810160405280929190818152602001828054610826906115b2565b80156108735780601f1061084857610100808354040283529160200191610873565b820191906000526020600020905b81548152906001019060200180831161085657829003601f168201915b5050505050908060050160009054906101000a900460ff16905083565b60008260008082815260200190815260200160002060050160009054906101000a900460ff166108f5576040517f08c379a00000000000000000000000000000000000000000000000000000000081526004016108ec90611563565b60405180910390fd5b60008085815260200190815260200160002060040160008473ffffffffffffffffffffffffffffffffffffffff1673ffffffffffffffffffffffffffffffffffffffff16815260200190815260200160002060009054906101000a900460ff1691505092915050565b600082426040516020016109739291906117f0565b60405160208183030381529060405280519060200120905060008060008381526020019081526020016000209050818160000181905550838160010190816109bb91906119c4565b5060018160050160006101000a81548160ff02191690831515021790555060005b8351811015610a635760008482815181106109fa576109f9611a96565b5b6020026020010151604051602001610a129190611ac5565b604051602081830303815290604052805190602001209050826002018190806001815401808255809150506001900390600052602060002001600090919091909150555080806001019150506109dc565b506001829080600181540180825580915050600190039060005260206000200160009091909190915055817f28826c2895ebcc6439efc6d6d0026e036a441e57f8297b7e6c619bc233a757a685604051610abd9190611adc565b60405180910390a250505050565b6000600180549050905090565b8160008082815260200190815260200160002060050160009054906101000a900460ff16610b3b576040517f08c379a0000000000000000000000000000000000000000000000000000000008152600401610b3290611563565b60405180910390fd5b600080600085815260200190815260200160002090508060040160003373ffffffffffffffffffffffffffffffffffffffff1673ffffffffffffffffffffffffffffffffffffffff16815260200190815260200160002060009054906101000a900460ff1615610be0576040517f08c379a0000000000000000000000000000000000000000000000000000000008152600401610bd790611b70565b60405180910390fd5b60003411610c23576040517f08c379a0000000000000000000000000000000000000000000000000000000008152600401610c1a90611c02565b60405180910390fd5b6000805b8260020180549050811015610c735784836002018281548110610c4d57610c4c611a96565b5b906000526020600020015403610c665760019150610c73565b8080600101915050610c27565b5080610cb4576040517f08c379a0000000000000000000000000000000000000000000000000000000008152600401610cab90611c6e565b60405180910390fd5b8160030160008581526020019081526020016000206000815480929190610cda90611cbd565b919050555060018260040160003373ffffffffffffffffffffffffffffffffffffffff1673ffffffffffffffffffffffffffffffffffffffff16815260200190815260200160002060006101000a81548160ff02191690831515021790555034600260003373ffffffffffffffffffffffffffffffffffffffff1673ffffffffffffffffffffffffffffffffffffffff16815260200190815260200160002060008781526020019081526020016000206000828254610d999190611d05565b92505081905550843373ffffffffffffffffffffffffffffffffffffffff167fee779a4827398317e34cef056191416061fd01cfe099627fbff79a5a98336bb58685600301600089815260200190815260200160002054604051610dfe929190611d39565b60405180910390a35050505050565b60018181548110610e1d57600080fd5b906000526020600020016000915090505481565b6000604051905090565b600080fd5b600080fd5b600073ffffffffffffffffffffffffffffffffffffffff82169050919050565b6000610e7082610e45565b9050919050565b610e8081610e65565b8114610e8b57600080fd5b50565b600081359050610e9d81610e77565b92915050565b6000819050919050565b610eb681610ea3565b8114610ec157600080fd5b50565b600081359050610ed381610ead565b92915050565b60008060408385031215610ef057610eef610e3b565b5b6000610efe85828601610e8e565b9250506020610f0f85828601610ec4565b9150509250929050565b6000819050919050565b610f2c81610f19565b82525050565b6000602082019050610f476000830184610f23565b92915050565b600060208284031215610f6357610f62610e3b565b5b6000610f7184828501610ec4565b91505092915050565b600081519050919050565b600082825260208201905092915050565b60005b83811015610fb4578082015181840152602081019050610f99565b60008484015250505050565b6000601f19601f8301169050919050565b6000610fdc82610f7a565b610fe68185610f85565b9350610ff6818560208601610f96565b610fff81610fc0565b840191505092915050565b600081519050919050565b600082825260208201905092915050565b6000819050602082019050919050565b61103f81610ea3565b82525050565b60006110518383611036565b60208301905092915050565b6000602082019050919050565b60006110758261100a565b61107f8185611015565b935061108a83611026565b8060005b838110156110bb5781516110a28882611045565b97506110ad8361105d565b92505060018101905061108e565b5085935050505092915050565b60008115159050919050565b6110dd816110c8565b82525050565b600060608201905081810360008301526110fd8186610fd1565b90508181036020830152611111818561106a565b905061112060408301846110d4565b949350505050565b6000806040838503121561113f5761113e610e3b565b5b600061114d85828601610ec4565b925050602061115e85828601610ec4565b9150509250929050565b61117181610ea3565b82525050565b600060608201905061118c6000830186611168565b818103602083015261119e8185610fd1565b90506111ad60408301846110d4565b949350505050565b600080604083850312156111cc576111cb610e3b565b5b60006111da85828601610ec4565b92505060206111eb85828601610e8e565b9150509250929050565b600060208201905061120a60008301846110d4565b92915050565b600080fd5b600080fd5b7f4e487b7100000000000000000000000000000000000000000000000000000000600052604160045260246000fd5b61125282610fc0565b810181811067ffffffffffffffff821117156112715761127061121a565b5b80604052505050565b6000611284610e31565b90506112908282611249565b919050565b600067ffffffffffffffff8211156112b0576112af61121a565b5b6112b982610fc0565b9050602081019050919050565b82818337600083830152505050565b60006112e86112e384611295565b61127a565b90508281526020810184848401111561130457611303611215565b5b61130f8482856112c6565b509392505050565b600082601f83011261132c5761132b611210565b5b813561133c8482602086016112d5565b91505092915050565b600067ffffffffffffffff8211156113605761135f61121a565b5b602082029050602081019050919050565b600080fd5b600061138961138484611345565b61127a565b905080838252602082019050602084028301858111156113ac576113ab611371565b5b835b818110156113f357803567ffffffffffffffff8111156113d1576113d0611210565b5b8086016113de8982611317565b855260208501945050506020810190506113ae565b5050509392505050565b600082601f83011261141257611411611210565b5b8135611422848260208601611376565b91505092915050565b6000806040838503121561144257611441610e3b565b5b600083013567ffffffffffffffff8111156114605761145f610e40565b5b61146c85828601611317565b925050602083013567ffffffffffffffff81111561148d5761148c610e40565b5b611499858286016113fd565b9150509250929050565b6114ac81610f19565b81146114b757600080fd5b50565b6000813590506114c9816114a3565b92915050565b6000602082840312156114e5576114e4610e3b565b5b60006114f3848285016114ba565b91505092915050565b60006020820190506115116000830184611168565b92915050565b7f5175657374696f6e20646f6573206e6f74206578697374000000000000000000600082015250565b600061154d601783610f85565b915061155882611517565b602082019050919050565b6000602082019050818103600083015261157c81611540565b9050919050565b7f4e487b7100000000000000000000000000000000000000000000000000000000600052602260045260246000fd5b600060028204905060018216806115ca57607f821691505b6020821081036115dd576115dc611583565b5b50919050565b7f4e6f2062616c616e636520746f20776974686472617700000000000000000000600082015250565b6000611619601683610f85565b9150611624826115e3565b602082019050919050565b600060208201905081810360008301526116488161160c565b9050919050565b7f596f752068617665206e6f7420766f746564206f6e207468697320717565737460008201527f696f6e0000000000000000000000000000000000000000000000000000000000602082015250565b60006116ab602383610f85565b91506116b68261164f565b604082019050919050565b600060208201905081810360008301526116da8161169e565b9050919050565b600081905092915050565b50565b60006116fc6000836116e1565b9150611707826116ec565b600082019050919050565b600061171d826116ef565b9150819050919050565b7f4661696c656420746f2073656e64204574686572000000000000000000000000600082015250565b600061175d601483610f85565b915061176882611727565b602082019050919050565b6000602082019050818103600083015261178c81611750565b9050919050565b600081905092915050565b60006117a982610f7a565b6117b38185611793565b93506117c3818560208601610f96565b80840191505092915050565b6000819050919050565b6117ea6117e582610f19565b6117cf565b82525050565b60006117fc828561179e565b915061180882846117d9565b6020820191508190509392505050565b60008190508160005260206000209050919050565b60006020601f8301049050919050565b600082821b905092915050565b60006008830261187a7fffffffffffffffffffffffffffffffffffffffffffffffffffffffffffffffff8261183d565b611884868361183d565b95508019841693508086168417925050509392505050565b6000819050919050565b60006118c16118bc6118b784610f19565b61189c565b610f19565b9050919050565b6000819050919050565b6118db836118a6565b6118ef6118e7826118c8565b84845461184a565b825550505050565b600090565b6119046118f7565b61190f8184846118d2565b505050565b5b81811015611933576119286000826118fc565b600181019050611915565b5050565b601f8211156119785761194981611818565b6119528461182d565b81016020851015611961578190505b61197561196d8561182d565b830182611914565b50505b505050565b600082821c905092915050565b600061199b6000198460080261197d565b1980831691505092915050565b60006119b4838361198a565b9150826002028217905092915050565b6119cd82610f7a565b67ffffffffffffffff8111156119e6576119e561121a565b5b6119f082546115b2565b6119fb828285611937565b600060209050601f831160018114611a2e5760008415611a1c578287015190505b611a2685826119a8565b865550611a8e565b601f198416611a3c86611818565b60005b82811015611a6457848901518255600182019150602085019450602081019050611a3f565b86831015611a815784890151611a7d601f89168261198a565b8355505b6001600288020188555050505b505050505050565b7f4e487b7100000000000000000000000000000000000000000000000000000000600052603260045260246000fd5b6000611ad1828461179e565b915081905092915050565b60006020820190508181036000830152611af68184610fd1565b905092915050565b7f596f75206861766520616c726561647920766f746564206f6e2074686973207160008201527f75657374696f6e00000000000000000000000000000000000000000000000000602082015250565b6000611b5a602783610f85565b9150611b6582611afe565b604082019050919050565b60006020820190508181036000830152611b8981611b4d565b9050919050565b7f596f75206e65656420746f2073656e6420736f6d6520657468657220746f207660008201527f6f74650000000000000000000000000000000000000000000000000000000000602082015250565b6000611bec602383610f85565b9150611bf782611b90565b604082019050919050565b60006020820190508181036000830152611c1b81611bdf565b9050919050565b7f496e76616c6964206f7074696f6e000000000000000000000000000000000000600082015250565b6000611c58600e83610f85565b9150611c6382611c22565b602082019050919050565b60006020820190508181036000830152611c8781611c4b565b9050919050565b7f4e487b7100000000000000000000000000000000000000000000000000000000600052601160045260246000fd5b6000611cc882610f19565b91507fffffffffffffffffffffffffffffffffffffffffffffffffffffffffffffffff8203611cfa57611cf9611c8e565b5b600182019050919050565b6000611d1082610f19565b9150611d1b83610f19565b9250828201905080821115611d3357611d32611c8e565b5b92915050565b6000604082019050611d4e6000830185611168565b611d5b6020830184610f23565b939250505056fea26469706673582212203a92edd0a55b8a94e70a4adf257267020487d7f6b1d722f6caebf1fe0c84584d64736f6c634300081b0033",
  "linkReferences": {},
  "deployedLinkReferences": {}
}